{
  "contractName": "SafeRemotePurchase",
  "abi": [
    {
      "anonymous": false,
      "inputs": [
        {
          "indexed": false,
          "name": "idItem",
          "type": "uint256"
        }
      ],
      "name": "SellerAdded",
      "type": "event",
      "signature": "0x71548304da75376a35bd2e3c0a6a430eec62e00768c923da903c81b4a6db0581"
    },
    {
      "anonymous": false,
      "inputs": [
        {
          "indexed": false,
          "name": "idItem",
          "type": "uint256"
        }
      ],
      "name": "BuyerAdded",
      "type": "event",
      "signature": "0x89f47346c7f9b279fa1d15f7ffe7142a74f61be944a189b153ec716912af3fd2"
    },
    {
      "anonymous": false,
      "inputs": [
        {
          "indexed": false,
          "name": "idItem",
          "type": "uint256"
        }
      ],
      "name": "OrderReceived",
      "type": "event",
      "signature": "0x0da1e3506cd52423e812adc8d0d707018a62e495b392a843f9f4fe89327aa207"
    },
    {
      "constant": false,
      "inputs": [
        {
          "name": "sellerHash",
          "type": "string"
        }
      ],
      "name": "addSellerHash",
      "outputs": [],
      "payable": false,
      "stateMutability": "nonpayable",
      "type": "function",
      "signature": "0xacfc330f"
    },
    {
      "constant": true,
      "inputs": [
        {
          "name": "idItem",
          "type": "uint256"
        }
      ],
      "name": "getSellerHash",
      "outputs": [
        {
          "name": "",
          "type": "string"
        }
      ],
      "payable": false,
      "stateMutability": "view",
      "type": "function",
      "signature": "0x9cafacee"
    },
    {
      "constant": false,
      "inputs": [
        {
          "name": "buyerHash",
          "type": "string"
        },
        {
          "name": "idItem",
          "type": "uint256"
        }
      ],
      "name": "addBuyerHash",
      "outputs": [],
      "payable": false,
      "stateMutability": "nonpayable",
      "type": "function",
      "signature": "0xe015bc50"
    },
    {
      "constant": true,
      "inputs": [
        {
          "name": "idItem",
          "type": "uint256"
        }
      ],
      "name": "getBuyerHash",
      "outputs": [
        {
          "name": "",
          "type": "string"
        }
      ],
      "payable": false,
      "stateMutability": "view",
      "type": "function",
      "signature": "0x18155372"
    },
    {
      "constant": false,
      "inputs": [],
      "name": "sellerPayment",
      "outputs": [],
      "payable": true,
      "stateMutability": "payable",
      "type": "function",
      "signature": "0xe1e281b7"
    },
    {
      "constant": false,
      "inputs": [
        {
          "name": "idItem",
          "type": "uint256"
        }
      ],
      "name": "buyerPayment",
      "outputs": [],
      "payable": true,
      "stateMutability": "payable",
      "type": "function",
      "signature": "0x6440f57f"
    },
    {
      "constant": false,
      "inputs": [
        {
          "name": "idItem",
          "type": "uint256"
        }
      ],
      "name": "confirmOrder",
      "outputs": [],
      "payable": false,
      "stateMutability": "nonpayable",
      "type": "function",
      "signature": "0x8ac7d79c"
    },
    {
      "constant": true,
      "inputs": [
        {
          "name": "idItem",
          "type": "uint256"
        }
      ],
      "name": "getSellerAddress",
      "outputs": [
        {
          "name": "sellerAddress",
          "type": "address"
        }
      ],
      "payable": false,
      "stateMutability": "view",
      "type": "function",
      "signature": "0xa675364d"
    },
    {
      "constant": true,
      "inputs": [
        {
          "name": "idItem",
          "type": "uint256"
        }
      ],
      "name": "getBuyerAddress",
      "outputs": [
        {
          "name": "buyerAddress",
          "type": "address"
        }
      ],
      "payable": false,
      "stateMutability": "view",
      "type": "function",
      "signature": "0x7e17c332"
    },
    {
      "constant": true,
      "inputs": [
        {
          "name": "idItem",
          "type": "uint256"
        }
      ],
      "name": "getTotal",
      "outputs": [
        {
          "name": "total",
          "type": "uint256"
        }
      ],
      "payable": false,
      "stateMutability": "view",
      "type": "function",
      "signature": "0x1feef08e"
    }
  ],
  "bytecode": "0x608060405234801561001057600080fd5b50610e13806100206000396000f3fe6080604052600436106100a4576000357c0100000000000000000000000000000000000000000000000000000000900463ffffffff16806318155372146100a95780631feef08e1461015d5780636440f57f146101ac5780637e17c332146101da5780638ac7d79c146102555780639cafacee14610290578063a675364d14610344578063acfc330f146103bf578063e015bc5014610487578063e1e281b714610559575b600080fd5b3480156100b557600080fd5b506100e2600480360360208110156100cc57600080fd5b8101908080359060200190929190505050610563565b6040518080602001828103825283818151815260200191508051906020019080838360005b83811015610122578082015181840152602081019050610107565b50505050905090810190601f16801561014f5780820380516001836020036101000a031916815260200191505b509250505060405180910390f35b34801561016957600080fd5b506101966004803603602081101561018057600080fd5b810190808035906020019092919050505061061b565b6040518082815260200191505060405180910390f35b6101d8600480360360208110156101c257600080fd5b810190808035906020019092919050505061063b565b005b3480156101e657600080fd5b50610213600480360360208110156101fd57600080fd5b8101908080359060200190929190505050610747565b604051808273ffffffffffffffffffffffffffffffffffffffff1673ffffffffffffffffffffffffffffffffffffffff16815260200191505060405180910390f35b34801561026157600080fd5b5061028e6004803603602081101561027857600080fd5b8101908080359060200190929190505050610787565b005b34801561029c57600080fd5b506102c9600480360360208110156102b357600080fd5b8101908080359060200190929190505050610aca565b6040518080602001828103825283818151815260200191508051906020019080838360005b838110156103095780820151818401526020810190506102ee565b50505050905090810190601f1680156103365780820380516001836020036101000a031916815260200191505b509250505060405180910390f35b34801561035057600080fd5b5061037d6004803603602081101561036757600080fd5b8101908080359060200190929190505050610b82565b604051808273ffffffffffffffffffffffffffffffffffffffff1673ffffffffffffffffffffffffffffffffffffffff16815260200191505060405180910390f35b3480156103cb57600080fd5b50610485600480360360208110156103e257600080fd5b81019080803590602001906401000000008111156103ff57600080fd5b82018360208201111561041157600080fd5b8035906020019184600183028401116401000000008311171561043357600080fd5b91908080601f016020809104026020016040519081016040528093929190818152602001838380828437600081840152601f19601f820116905080830192505050505050509192919290505050610bc2565b005b34801561049357600080fd5b50610557600480360360408110156104aa57600080fd5b81019080803590602001906401000000008111156104c757600080fd5b8201836020820111156104d957600080fd5b803590602001918460018302840111640100000000831117156104fb57600080fd5b91908080601f016020809104026020016040519081016040528093929190818152602001838380828437600081840152601f19601f82011690508083019250505050505050919291929080359060200190929190505050610c3c565b005b610561610ca2565b005b6060600160008381526020019081526020016000206002018054600181600116156101000203166002900480601f01602080910402602001604051908101604052809291908181526020018280546001816001161561010002031660029004801561060f5780601f106105e45761010080835404028352916020019161060f565b820191906000526020600020905b8154815290600101906020018083116105f257829003601f168201915b50505050509050919050565b600060016000838152602001908152602001600020600401549050919050565b6001600082815260200190815260200160002060030154600202341415156106cb576040517f08c379a000000000000000000000000000000000000000000000000000000000815260040180806020018281038252601c8152602001807f506c65617365206465706f7369746520646f75626c652076616c75650000000081525060200191505060405180910390fd5b336001600083815260200190815260200160002060060160006101000a81548173ffffffffffffffffffffffffffffffffffffffff021916908373ffffffffffffffffffffffffffffffffffffffff16021790555034600160008381526020019081526020016000206004016000828254019250508190555050565b60006001600083815260200190815260200160002060060160009054906101000a900473ffffffffffffffffffffffffffffffffffffffff169050919050565b3373ffffffffffffffffffffffffffffffffffffffff166001600083815260200190815260200160002060060160009054906101000a900473ffffffffffffffffffffffffffffffffffffffff1673ffffffffffffffffffffffffffffffffffffffff16141515610886576040517f08c379a00000000000000000000000000000000000000000000000000000000081526004018080602001828103825260248152602001807f6f6e6c7920617574686f726973656420757365722063616e20636f6e6669726d81526020017f2069742e0000000000000000000000000000000000000000000000000000000081525060400191505060405180910390fd5b60046001600083815260200190815260200160002060030154026001600083815260200190815260200160002060040154141515610952576040517f08c379a00000000000000000000000000000000000000000000000000000000081526004018080602001828103825260288152602001807f506c6561736520646f205061796d656e74204669727374207468656e20636f6e81526020017f6669726d2069742e00000000000000000000000000000000000000000000000081525060400191505060405180910390fd5b6001600082815260200190815260200160002060060160009054906101000a900473ffffffffffffffffffffffffffffffffffffffff1673ffffffffffffffffffffffffffffffffffffffff166108fc60016000848152602001908152602001600020600301549081150290604051600060405180830381858888f193505050501580156109e4573d6000803e3d6000fd5b506001600082815260200190815260200160002060050160009054906101000a900473ffffffffffffffffffffffffffffffffffffffff1673ffffffffffffffffffffffffffffffffffffffff166108fc60016000848152602001908152602001600020600301546001600085815260200190815260200160002060040154039081150290604051600060405180830381858888f19350505050158015610a8f573d6000803e3d6000fd5b507f0da1e3506cd52423e812adc8d0d707018a62e495b392a843f9f4fe89327aa207816040518082815260200191505060405180910390a150565b6060600160008381526020019081526020016000206001018054600181600116156101000203166002900480601f016020809104026020016040519081016040528092919081815260200182805460018160011615610100020316600290048015610b765780601f10610b4b57610100808354040283529160200191610b76565b820191906000526020600020905b815481529060010190602001808311610b5957829003601f168201915b50505050509050919050565b60006001600083815260200190815260200160002060050160009054906101000a900473ffffffffffffffffffffffffffffffffffffffff169050919050565b600080600081548092919060010191905055905081600160008381526020019081526020016000206001019080519060200190610c00929190610d42565b507f71548304da75376a35bd2e3c0a6a430eec62e00768c923da903c81b4a6db0581816040518082815260200191505060405180910390a15050565b81600160008381526020019081526020016000206002019080519060200190610c66929190610d42565b507f89f47346c7f9b279fa1d15f7ffe7142a74f61be944a189b153ec716912af3fd2816040518082815260200191505060405180910390a15050565b600080549050600234811515610cb457fe5b046001600083815260200190815260200160002060030181905550336001600083815260200190815260200160002060050160006101000a81548173ffffffffffffffffffffffffffffffffffffffff021916908373ffffffffffffffffffffffffffffffffffffffff16021790555034600160008381526020019081526020016000206004018190555050565b828054600181600116156101000203166002900490600052602060002090601f016020900481019282601f10610d8357805160ff1916838001178555610db1565b82800160010185558215610db1579182015b82811115610db0578251825591602001919060010190610d95565b5b509050610dbe9190610dc2565b5090565b610de491905b80821115610de0576000816000905550600101610dc8565b5090565b9056fea165627a7a72305820092c60154696afb7c216024d033779e37a5bf5580c93d0b131cc5e6f632978260029",
  "source": "pragma solidity ^0.5.0;\n\ncontract SafeRemotePurchase {\n\n  event SellerAdded(uint idItem);  //used in market page for getting all seller details\n  event BuyerAdded(uint idItem); //used in process order page for getting buyer details\n  event OrderReceived(uint idItem); //used in market page to disable confirm button\n  struct Item {\n    uint idItem;\n    string sellerHash;\n    string buyerHash;\n    uint productPrice;\n    uint totalPrice;\n    address payable sellerAddress;\n    address payable buyerAddress;\n  }\n\n  //count number of product available in market\n  uint numberOfItemAvailableForSale;\n\n  //Mapping\n  mapping(uint=>Item) items;\n\n  //Set and get Seller hash for perticular product\n  function addSellerHash(string memory sellerHash) public {\n    uint idItem = numberOfItemAvailableForSale++;\n    items[idItem].sellerHash = sellerHash;\n    emit SellerAdded(idItem);\n  }\n   function getSellerHash(uint idItem) public view returns (string memory) {\n    return items[idItem].sellerHash;\n  }\n\n  //Set and get Buyer Hash for perticular product\n  function addBuyerHash(string memory buyerHash, uint idItem) public {\n    items[idItem].buyerHash = buyerHash;\n    emit BuyerAdded(idItem);\n  }\n\n   function getBuyerHash(uint idItem) public view returns (string memory) {\n    return items[idItem].buyerHash;\n  }\n\n  /* main bussiness logic  */\n\n  //for seller payment\n  function sellerPayment() public payable {\n    uint idItem = numberOfItemAvailableForSale;\n    items[idItem].productPrice = msg.value/2;\n    items[idItem].sellerAddress = msg.sender;\n    items[idItem].totalPrice = msg.value;\n  }\n\n  //for buyer payment\n  function buyerPayment(uint idItem) public payable {\n    require(msg.value == 2*items[idItem].productPrice,\"Please deposite double value\");\n    items[idItem].buyerAddress = msg.sender;\n    items[idItem].totalPrice += msg.value;\n  }\n\n  // once buyer confirm the order\n  function confirmOrder(uint idItem) public {\n    require(items[idItem].buyerAddress == msg.sender,\"only authorised user can confirm it.\");\n    require(items[idItem].totalPrice == items[idItem].productPrice*4,\"Please do Payment First then confirm it.\");\n    items[idItem].buyerAddress.transfer(items[idItem].productPrice);\n    items[idItem].sellerAddress.transfer(items[idItem].totalPrice - items[idItem].productPrice);\n    emit OrderReceived(idItem);\n  }\n\n  // get seller address\n  function getSellerAddress(uint idItem) public view returns(address sellerAddress) {\n    sellerAddress = items[idItem].sellerAddress;\n  }\n\n  // get buyer address\n  function getBuyerAddress(uint idItem) public view returns(address buyerAddress) {\n    buyerAddress = items[idItem].buyerAddress;\n  }\n\n  //get Total price\n  function getTotal(uint idItem ) public view returns(uint total) {\n    total = items[idItem].totalPrice;\n  }\n\n}\n",
  "sourcePath": "C:/Users/Public/Documents/React/SRF/backend/contracts/SafeRemotePurchase.sol",
  "compiler": {
    "name": "solc",
    "version": "0.5.0+commit.1d4f565a.Emscripten.clang"
  },
  "schemaVersion": "3.0.2",
  "updatedAt": "2019-06-10T04:21:03.191Z",
  "devdoc": {
    "methods": {}
  },
  "userdoc": {
    "methods": {}
  }
}